:1000000012C019C018C017C016C015C014C013C044
:1000100012C011C010C00FC00EC00DC00CC00BC06C
:100020000AC009C008C011241FBECFE5D4E0DEBF5E
:10003000CDBF2AD02AC0E4CF81B3876081BB82B311
:10004000876082BB92982FE38DE093E0215080403F
:100050009040E1F700C00000929A91982FE38DE064
:1000600093E0215080409040E1F700C00000919A59
:1000700090982FE38DE093E0215080409040E1F78D
:0E00800000C00000909ADECFD7DFF894FFCFCB
:00000001FF
