:1000000012C021C020C01FC01EC01DC01CC01BC00C
:100010001AC019C018C017C016C015C014C013C02C
:1000200012C011C010C011241FBECFE5D4E0DEBF46
:10003000CDBF20E0A0E6B0E001C01D92A136B2071E
:10004000E1F740D040C0DCCF813021F028F0823091
:1000500039F004C080E0089582E0089582E00895B8
:1000600081E0089587B3876087BB88B3876088BBCA
:100070008EB51FBC837E83608EBDC1E0D0E08CB5A1
:100080009DB58A309D43D8F328B3CE01009060001F
:1000900002C0880F991F0A94E2F7822B88BB8091D7
:1000A0006000D2DF8093600098B39E0102C0220FEF
:1000B000331F8A95E2F7822F8095892388BB1DBC68
:0A00C0001CBCDDCFCFDFF894FFCFAA
:00000001FF
